:020000040000FA
:060000000A128A11122809
:10000800FE00030E83120313DB000408DC000A0859
:10001800DD007F08DE000A168A158E2C0A128A1166
:100028001528831603170A168A15CB210A128A1176
:10003800E1000A168A15CC210A128A11E2000A1672
:100048008A15CD210A128A11E300831790308400A3
:10005800C9300A128A1501200A128A111030840048
:1000680048300A128A15012083120313E001E101C6
:10007800E20183010A168A11962B8316031760087A
:1000880083160313A100831603175F08831603134F
:10009800A0000A168A154E240A128A118316031321
:1000A8002008831203138600013083160317DD002E
:1000B8000030DE00013083160317DD070318DE0A5F
:1000C8000030DE075E08803AFF009B307F02031D88
:1000D8006F2844305D02031C5E280A168A15D02357
:1000E8000A128A1183160313210883160317DC00EA
:1000F80083160313200883160317DB006008831692
:100108000313A100831603175F0883160313A000C7
:100118000A168A154E240A128A1183160313200818
:10012800083E831203138600013083160317DD008F
:100138000030DE00013083160317DD070318DE0ADE
:100148000030DE075E08803AFF009B307F02031D07
:10015800AF2844305D02031C9E280A168A15D02356
:100168000A128A11831603132008831603175B02E9
:1001780083160313E1002108031C210A83160317C1
:100188005C0283160313E200831603175F088316C5
:100198000313E3006307A83E840061088317800007
:1001A800840A62088000831603173C088316031329
:1001B800CB00831603173D0883160313CC00831660
:1001C80003173E0883160313CD00831603173F0851
:1001D80083160313BB008316031740088316031303
:1001E800BC0083160317410883160313BD0083164A
:1001F80003175F0883160313E1006107A83E840014
:100208000008A800840A0008A9000A168A15902286
:100218000A128A11831603132808BE002908BF0092
:100228002A08C0000A168A113A210A128A1183166E
:1002380003133B08CE003C08CF003D08D0000A1647
:100248008A154D220A128A11831603134B08831646
:100258000317D800831603134C0883160317D90015
:10026800831603134D0883160317DA0058088316FC
:100278000313CB0083160317590883160313CC0006
:10028800831603175A0883160313CD000330E100C1
:100298006108A000831603175F080A168A11002058
:1002A8000A128A11903E84008317000883160313EC
:1002B800CE00840A0008CF00840A0008D0000A167D
:1002C8008A154D220A128A11831603134B08D70088
:1002D8004C08D8004D08D9000A168A15B5220A120A
:1002E8008A1183160313570883160317CE00831643
:1002F8000313580883160317CF00831603135908EE
:1003080083160317D0004B0883160313D1008316F6
:1003180003174C0883160313D200831603174D08DE
:1003280083160313D300831603174E08831603138B
:10033800D400831603174F0883160313D5008316BA
:100348000317500883160313D6000A168A15362396
:100358000A128A11031C912A831603175808831658
:100368000313D10083160317590883160313D20009
:10037800831603175A0883160313D300831603172B
:10038800620883160313A9008316031761088316EE
:100398000313A8000A168A1590220A128A118316D6
:1003A80003132808CB002908CC002A08CD00003008
:1003B800CE007A30CF004430D0000A168A154D227C
:1003C8000A128A11831603134B08D4004C08D5006F
:1003D8004D08D6000A168A11C3220A128A118316FA
:1003E8000313510883160317D10083160313520809
:1003F80083160317D20083160313530883160317B3
:10040800D300003083160313BB007A30BC0044309D
:10041800BD0083160317510883160313AE00831615
:100428000317520883160313AF00831603175308E4
:1004380083160313B0000330E1006108A00083169F
:1004480003175F080A168A1100200A128A11903EC3
:1004580084008317000883160313D100840A000858
:10046800D200840A0008D300831603176208831693
:100478000313A90083160317610883160313A80042
:100488000A168A1590220A128A118316031328085D
:10049800D4002908D5002A08D6000A168A11C322D2
:1004A8000A128A11831603135108B1005208B200C8
:1004B8005308B3000A128A1586200A128A11831675
:1004C80003132E08BE002F08BF003008C0000A160C
:1004D8008A113A210A128A11831603133B08E20093
:1004E8003C08E3003D08E4000330E5006508A0008F
:1004F800831603175F080A168A1100200A128A1148
:10050800903E840083160313620883178000840AD0
:1005180063088000840A6408CB2A831603175F08DF
:1005280083160313E1006107103E8400013083172E
:100538008007840A0318800A831603175F08831646
:100548000313E1006107103E84000008E200840AFA
:100558000008E300043062066304031DD82A033050
:10056800E1006108A000831603175F080A168A11C4
:1005780000200A128A11903E840083160317580837
:1005880083178000840A59088000840A5A0880006A
:10059800831603175F0883160313E1006107103EF3
:1005A80084008001840A8001831603175F0883167C
:1005B8000313E1006107103E84000008E200840A8A
:1005C8000008E3006308803AFF0080307F02031DC3
:1005D800EF2A043062020318042B831603175F08FE
:1005E80083160313E1006107103E84008317000897
:1005F800E200840A0008E30062086304031D41283E
:10060800013083160317DF070318E00A0030E007FC
:100618006008803AFF0080307F02031D152B0830E8
:100628005F020A168A11031C8A2D0A128A110830E1
:100638008316031763060319312D63088316031302
:10064800E100E201831603174A08831603136206C2
:10065800031D342B831603174908831603136106F9
:100668000319A52B83160317630883160313E100E8
:10067800E201610883160317C90083160313620891
:1006880083160317CA00630883160313E100E20107
:100698006108A0006208A1000A168A154E240A12F1
:1006A8008A1183160313200883120313860001306E
:1006B80083160317DD000030DE00013083160317B0
:1006C800DD070318DE0A0030DE075E08803AFF0007
:1006D800A7307F02031D722B10305D02031C612BB3
:1006E80083160317DF01E001831603175F088316DB
:1006F8000313E1006107B83E840083178001840A70
:100708008001013083160317DF070318E00A003061
:10071800E0076008803AFF0080307F02031D962BB7
:1007280002305F02031C782B8316031763088316B5
:100738000313E1006107A83E840083178001840A3F
:100748008001831603174203031D3F2C83160317EA
:10075800630883160313E100E2016108A000620840
:10076800A1000A168A154E240A128A118316031349
:100778002008831203138600013083160317DD0057
:100788000030DE00013083160317DD070318DE0A88
:100798000030DE075E08803AFF009B307F02031DB1
:1007A800D72B44305D02031CC62B0A168A15D023AA
:1007B8000A128A1183160313210883160317DC0013
:1007C80083160313200883160317DB0063088316B8
:1007D8000313E100E2016108A0006208A1000A1603
:1007E8008A154E240A128A11831603132008083E1C
:1007F800831203138600013083160317DD000030CF
:10080800DE00013083160317DD070318DE0A003007
:10081800DE075E08803AFF009B307F02031D162C1E
:1008280044305D02031C052C0A168A15D0230A12CF
:100838008A11831603132008831603175B02831695
:100848000313E1002108031C210A831603175C0225
:1008580083160313E2008316031763088316031332
:10086800E3006307A83E8400610883178000840AB8
:1008780062088000AA2B0030D7000030D600003074
:10088800D5000030D400DB01DC015C08803AFF00B1
:1008980080307F02031D522C01305B020318B82CF4
:1008A800831603175B0883160313E1006107BA3E3A
:1008B800840083170008E200840A0008E300831616
:1008C80003175B0883160313E4006407B83E84002B
:1008D80062088000840A63088000831603175B0897
:1008E80083160313E1006107B83E84000008E200A4
:1008F800840A0008E3006208E4006308E5000030A9
:10090800E51BFF30E600E700640883160317D407E9
:1009180083160313650803110318013E0319972C66
:1009280083160317D50783160313660803110318E4
:10093800013E0319A22C83160317D6078316031347
:10094800670803110318013E0319AD2C831603171A
:10095800D70783160313831603170130DB07031821
:10096800DC0A0030DC07492C0A168A15D0230A1243
:100978008A1183160313210883160317BB008316F5
:100988000313200883160317BA00540883160313A9
:10099800E10083160317550883160313E200831634
:1009A8000317560883160313E30083160317570823
:1009B80083160313E400831603173A0883160313F8
:1009C800E500831603173B0883160313E60000307F
:1009D800E61BFF30E700E8006508E1076608031832
:1009E800660FF72CF82CE20767080318670FFD2C31
:1009F800FE2CE30768080318680AE40701300310AF
:100A0800E40CE30CE20CE10CFF3E031D032D64082B
:100A180083160317D7008316031363088316031777
:100A2800D60083160313620883160317D5008316AE
:100A38000313610883160317D4006308831603138E
:100A4800E1006107A83E8400831603175408831742
:100A58008000840A550880001B2B0A168A11882DED
:100A680083160313A3008A30A1002108A40083126F
:100A78000313081283160313A701A8010130831674
:100A88000313A7070318A80A0030A8072808803A04
:100A9800FF0080307F02031D532D0A302702031CFC
:100AA800422D83120313881283160313A501A6018E
:100AB800831603132408A1002508073C013E662D70
:100AC8000310A10CFF3E031D642D2108A200A20EF5
:100AD800831203130808831603132206EF3922062C
:100AE80083120313880083160313A701A80101309A
:100AF80083160313A7070318A80A0030A8072808B5
:100B0800803AFF0080307F02031D8C2D03302702BE
:100B1800031C7B2D83120313881683160313A70166
:100B2800A801013083160313A7070318A80A003089
:100B3800A8072808803AFF0080307F02031DA62DF1
:100B480003302702031C952D8312031388120730E4
:100B58008316031325062604031908160130A50772
:100B68000318A60A0030A6072608803AFF0080303E
:100B78007F02031DC12D08302502031C5C2D83163E
:100B880003130812A701A801013083160313A7074E
:100B98000318A80A0030A8072808803AFF00803008
:100BA8007F02031DD92D03302702031CC82D831291
:100BB8000313881683160313A701A80101308316AF
:100BC8000313A7070318A80A0030A8072808803AC3
:100BD800FF0080307F02031DF32D02302702031C23
:100BE800E22D83120313881283160313A701A801A9
:100BF800013083160313A7070318A80A0030A807B3
:100C08002808803AFF0080307F02031D0D2E033034
:100C18002702031CFC2D83120313081683160313E3
:100C2800A701A801013083160313A7070318A80A10
:100C38000030A8072808803AFF0080307F02031D93
:100C4800272E0F302702031C162E83160313A50127
:100C5800A601831603132308A1002508073C013EBB
:100C6800372E0310A10CFF3E031D352E2108A200CC
:100C7800A20E831203130808831603132206EF3902
:100C8800220683120313880083160313A701A80101
:100C9800013083160313A7070318A80A0030A80712
:100CA8002808803AFF0080307F02031D5D2E033044
:100CB8002702031C4C2E8312031388168316031372
:100CC800A701A801013083160313A7070318A80A70
:100CD8000030A8072808803AFF0080307F02031DF3
:100CE800772E03302702031C662E83120313881203
:100CF8000730831603132506260403190816013046
:100D0800A5070318A60A0030A6072608803AFF00A0
:100D180080307F02031D922E08302502031C2D2EE1
:100D2800831603130812A701A801013083160313C1
:100D3800A7070318A80A0030A8072808803AFF0068
:100D480080307F02031DAA2E03302702031C992E30
:100D580083120313881683160313A701A801013011
:100D680083160313A7070318A80A0030A807280842
:100D7800803AFF0080307F02031DC42E0230270214
:100D8800031CB32E83120313881283160313A701BF
:100D9800A801013083160313A7070318A80A003017
:100DA800A8072808803AFF0080307F02031DDE2E46
:100DB80003302702031CCD2E831203130816831653
:100DC8000313A701A801013083160313A70703180B
:100DD800A80A0030A8072808803AFF0080307F0260
:100DE800031DF82E0F302702031CE72E831603136A
:100DF800A501A601831603132008A1002508073CB6
:100E0800013E082F0310A10CFF3E031D062F2108E9
:100E1800A200A20E831203130808831603132206E6
:100E2800EF39220683120313880083160313A701E0
:100E3800A801013083160313A7070318A80A003076
:100E4800A8072808803AFF0080307F02031D2E2F54
:100E580003302702031C1D2F8312031388168316E1
:100E68000313A701A801013083160313A70703186A
:100E7800A80A0030A8072808803AFF0080307F02BF
:100E8800031D482F03302702031C372F8312031337
:100E9800881207308316031325062604031908163B
:100EA8000130A5070318A60A0030A6072608803ACD
:100EB800FF0080307F02031D632F08302502031CCA
:100EC800FE2E831603130812A701A801013083160A
:100ED8000313A7070318A80A0030A8072808803AB0
:100EE800FF0080307F02031D7B2F03302702031C85
:100EF8006A2F83120313881683160313A701A80108
:100F0800013083160313A7070318A80A0030A8079F
:100F18002808803AFF0080307F02031D952F023099
:100F28002702031C842F83120313881283160313CA
:100F3800A701A801013083160313A7070318A80AFD
:100F48000030A8072808803AFF0080307F02031D80
:100F5800AF2F05302702031C9E2F83120313881618
:100F680083160313A701A801013083160313A707EB
:100F78000318A80A0030A8072808803AFF00803024
:100F88007F02031DC92F0A302702031CB82F8312C2
:100F98000313081683160313A701A801013083164B
:100FA8000313A7070318A80A0030A8072808803ADF
:100FB800FF0080307F02031DE32F1930270203183A
:100FC8000800D22FF5008312031383120313750848
:100FD800831203178D0074088C00831603178C1373
:100FE8000C158B1355308D00AA308D008C148C187D
:080FF800FB2F8B170C11080000
:1010020064008001840A04060319003404060228DD
:10101200831203132A08AE002B08AF002C08B0007D
:1010220003102F0D300DB1003108B7003708031D32
:1010320023280030AD000030AC000030AB0000309F
:10104200AA0008002A08AE002B08AF002C08B00046
:1010520017300310B00CAF0CAE0CFF3E031D2A2854
:101062002E08B1003108B200AB17FF30AA05FF30DD
:10107200AB050030AC052A08B3002B08B4002C08DD
:10108200B500B6018E30B702B71F5C283708803A28
:101092008F3E031C1A2801300310B60CB50CB40C99
:1010A200B30CFF3E031D4D280130AE002E08B707DA
:1010B20003196F284C281830370203181A283708EA
:1010C20003196F280130AE000310B30DB40DB50D36
:1010D200B60DAE0B65280130B7026028320803193D
:1010E2007D28B309B409B509B609B30A0319B40ACC
:1010F2000319B50A0319B60A3608AD003508AC0063
:101102003408AB003308AA000800831603132E0824
:10111200B4002F08B5003008B6000310350D360DA7
:10112200B7003708BA003108B4003208B5003308F6
:10113200B6000310350D360DB7003708B9003A086E
:101142000319AF2839083A020318B6283908B4003F
:101152003A08B40219303402031CB6283108AE0032
:101162003208AF003308B00008003908031908003C
:101172003A0839020318C5283A08B4003908B402FB
:1011820019303402031808000630B4003408B800DD
:10119200B01BB817B31B3817AF17FF30AE05FF30BF
:1011A200AF050030B005B217FF30B105FF30B20510
:1011B2000030B30539083A0203180529013003103B
:1011C200B10DB20DB30DFF3E031DE0280130B9028F
:1011D20039083A06031900290130B80238080739DC
:1011E20003190029DF2801300310B00CAF0CAE0C3C
:1011F200FF3E031DF5280130B4003408BA073A084F
:10120200390603192E29F4283A08390203182E291F
:1012120001300310AE0DAF0DB00DFF3E031D0A29C4
:101222000130BA0239083A0603192A290130B802F4
:101232003808073903192A29092901300310B30C88
:10124200B20CB10CFF3E031D1F290130B40034085B
:10125200B9073A083906031D1E29B81F4029FF3075
:10126200AE06FF30AF06FF30B0060130AE070030E9
:1012720003180130AF07003003180130B007381FE0
:101282005229FF30B106FF30B206FF30B3060130FB
:10129200B107003003180130B207003003180130E3
:1012A200B307B8012E08B1072F08031103182F0A3C
:1012B200031DB207300803110318300A031DB307D8
:1012C200B31F7529FF30B106FF30B206FF30B306F7
:1012D2000130B107003003180130B20700300318A3
:1012E2000130B307B801B80A3108A0003208A100E2
:1012F2003308A2003A08B4003408A3003808B50045
:101302003508A4000A168A155626831603132008E8
:10131200AE002108AF002208B000080083160313B4
:10132200A901AA01831603132908653E0A168A1524
:101332000F220A128A1583160313A5002908643E98
:101342000A168A150F220A128A1583160313A6009B
:10135200250A031D192A260A031D192A2908C93E2E
:101362000A168A150F220A128A1583160313A5007C
:101372002908C83E0A168A150F220A128A158316F0
:101382000313A600250A031D192A260A031D192A7A
:1013920029080A168A150F220A128A1583160313C0
:1013A200A5002508A3002908643E0A168A156E22A4
:1013B2000A128A15831603132908013E0A168A1592
:1013C2000F220A128A1583160313A5002508A3000B
:1013D2002908653E0A168A156E220A128A15831694
:1013E200031329080A168A150F220A128A15831670
:1013F2000313A5002508A3002908C83E0A168A156A
:101402006E220A128A15831603132908013E0A1650
:101412008A150F220A128A1583160313A5002508BE
:10142200A3002908C93E0A168A156E220A128A15D5
:10143200023083160313A9070318AA0A0030AA0769
:101442002A08803AFF0080307F02031D2A2A0530D5
:101452002902031C932983160313AB01AC018316E3
:1014620003132B08653E0A168A150F220A128A15E3
:1014720083160313A5002B08643E0A168A150F2251
:101482000A128A1583160313A6002B08013E0A16B8
:101492008A150F220A128A1583160313A7002B0836
:1014A2000A168A150F220A128A1583160313A80038
:1014B20026082806031D5F2A25082706031DB32ACE
:1014C2002B08C93E0A168A150F220A128A1583169C
:1014D2000313A5002B08C83E0A168A150F220A120A
:1014E2008A1583160313A6002B08013E0A168A15D5
:1014F2000F220A128A1583160313A7002B080A1655
:101502008A150F220A128A1583160313A8002608C9
:101512002806031D8E2A2508270603195C2B2B0893
:101522000A168A150F220A128A1583160313A500BA
:101532002508A3002B08C83E0A168A156E220A1235
:101542008A15831603132B08013E0A168A150F22E9
:101552000A128A1583160313A5002508A3002B0877
:10156200C93E572B2B08C93E0A168A150F220A12AA
:101572008A1583160313A5002B08C83E0A168A157E
:101582000F220A128A1583160313A6002B08653E42
:101592000A168A150F220A128A1583160313A70048
:1015A2002B08643E0A168A150F220A128A15831620
:1015B2000313A80026082806031DE12A250827068A
:1015C200031D062B2B08643E0A168A150F220A12E7
:1015D2008A1583160313A5002508A3002B080A16F3
:1015E2008A156E220A128A15831603132B08653E8A
:1015F2000A168A150F220A128A1583160313A500EA
:101602002508A3002B08013E572B2B08C93E0A16BA
:101612008A150F220A128A1583160313A5002B08B6
:10162200C83E0A168A150F220A128A158316031358
:10163200A6002B08013E0A168A150F220A128A15E5
:1016420083160313A7002B080A168A150F220A1203
:101652008A1583160313A80026082806031D332BB8
:1016620025082706031D5C2B2B080A168A150F2254
:101672000A128A1583160313A5002508A3002B0856
:10168200643E0A168A156E220A128A1583160313FD
:101692002B08013E0A168A150F220A128A15831692
:1016A2000313A5002508A3002B08653E0A168A1518
:1016B2006E220A128A15023083160313AB0703182F
:1016C200AC0A0030AC072C08803AFF0080307F0261
:1016D200031D6D2B05302B0203180800302A8312DC
:1016E2000317210883120313C0004008C8008312A5
:1016F2000317230883120313C000C10183120317C7
:10170200220883120313C200C3014208C300C201AC
:1017120040084204D30041084304D4008312031753
:10172200A001A201213083120313C0004008D2009D
:101732002430C0004008D8002330C0004008D50043
:101742005508840083178001D32F530854040319CA
:10175200B12BE5300A168A15D3210A128A15F32F06
:10176200520884008001800A0330C00055088400BA
:10177200400880000230C000580884004008800001
:101782000130C0004008D8070A30C0005808840061
:10179200400880000130C0004008D8075808840083
:1017A20080012C2C530854040319DE2BE5300A1651
:1017B2008A15D3210A128A15F32F0330C00052086A
:1017C2008400400880000D30C000550884004008A5
:1017D2008000CC01CD010230C000580884004008CE
:1017E20080000130C0004008D8070130CC07031840
:1017F200CD0A0030CD0700304D02083003194C02EB
:10180200031CEC2BCC01CD018230C00058088400AF
:10181200400880000130C0004008D8070130CC07E2
:101822000318CD0A0030CD0700304D0203300319F2
:101832004C02031C052C8130C0005808840040086B
:1018420080000130C0004008D8078130C00058082D
:101852008400400880000130C0004008D807F32F00
:101862005308540403193C2CE5300A168A15D32177
:101872000A128A15F32F0530C0005208840040086E
:1018820080000330C00055088400400880000C30FE
:10189200C00058088400400880000130C0004008A1
:1018A200D8070830C0005808840040088000013082
:1018B200C0004008D8078530272C5808840000084B
:1018C200C0004008CE005303540403196F2CE530C6
:1018D2000A168A15D3210A128A15F32F03304E02F3
:1018E200031C7A2CE3300A168A15D3210A128A15B0
:1018F200F32F0730C0005208840040088000D00156
:10190200D1014E08031D4E03031DA72C0830C00051
:101912005508840040088007D001D10100305102EF
:101922000830031950020318A72C5008C0005808A9
:101932008400400880000130C0004008D807013010
:10194200D0070318D10A0030D1078F2C4E08031993
:10195200AE2C02304E06031DF32F0430C000550892
:101962008400400880070830D0000030D1000030E9
:1019720051020D30031950020318F32F5008C00012
:1019820058088400400880000130C0004008D80791
:101992000130D0070318D10A0030D107B82C530800
:1019A2005404031DD62C0930D72CE530C400003076
:1019B200C5004408E72C53085404031DE22C0D30E3
:1019C200E32CE530C6000030C7004608C0005208CC
:1019D200B22D580884000008C0004008D600530306
:1019E20054040319FB2CE5300A168A15D3210A1276
:1019F2008A15F32F13305602031C062DE3300A1604
:101A02008A15D3210A128A15F32F1130C000520809
:101A12008400400880000230C0005508840040085D
:101A22008000083056020318242D5608C000C10158
:101A32004008B8004108B90058080A168A15E2247D
:101A42000A128A15F32F083056060319302D0D306D
:101A520056060319302D10305606031D4D2D053044
:101A6200F0000030F1005608FF3EF200FF3003188C
:101A72000030F3000A168A1591250A128A15710898
:101A8200FA007008F9008312031358080A168A151F
:101A92000E240A128A15F32F093056060319592DFE
:101AA2000E3056060319592D11305606031D762D98
:101AB2000530F0000030F1005608FF3EF200FF3022
:101AC20003180030F3000A168A1591250A128A15A6
:101AD2007108FA007008F9008312031358080A16F5
:101AE2008A150A230A128A15F32F0A305606031999
:101AF200822D0F3056060319822D12305606031D11
:101B02009F2D0530F0000030F1005608FF3EF20034
:101B1200FF3003180030F3000A168A1591250A12C5
:101B22008A157108FA007008F90083120313580825
:101B32000A168A15DE220A128A15F32F5508840026
:101B42008001800A0B305606031DAB2D8316031746
:101B52004208AE2D83160317630883120313C000D5
:101B62005808840040088000F32F580884000008B9
:101B7200C0004008CF00530354040319C72DE530B9
:101B82000A168A15D3210A128A15F32F03304F023F
:101B9200031CD22DE3300A168A15D3210A128A15A4
:101BA200F32F1330C00052088400400880004F0811
:101BB200031D4F03031D042ECA01CB0100304B024B
:101BC200083003194A020318042E4B08B9004A08C8
:101BD200B80058080A168A15E2240A128A15023039
:101BE20083120313C0004008D8070230C000550812
:101BF20084004008831780070130CA070318CB0A04
:101C02000030CB07DF2D4F0803190B2E02304F0691
:101C1200031DF32F0130F9000030FA0058080A16AC
:101C22008A150E240A128A150230F9000030FA00D1
:101C32008312031358080A168A150E240A128A15EB
:101C42000330F9000030FA008312031358080A1611
:101C52008A150E240A128A15023083120313C00059
:101C62004008D8070230C000550884004008831796
:101C720080070130F9000030FA0058080A168A1568
:101C82000A230A128A150230F9000030FA00831280
:101C9200031358080A168A150A230A128A150330F2
:101CA200F9000030FA008312031358080A168A1545
:101CB2000A230A128A15023083120313C000400855
:101CC200D8070230C00055088400400883178007F7
:101CD2000130F9000030FA0058080A168A15DE228F
:101CE2000A128A150230F9000030FA008312031337
:101CF20058080A168A15DE220A128A150330F900DC
:101D02000030FA008312031358080A168A15DE22DD
:101D12000A128A15023083120313C0004008D80742
:101D22000230C000550884004008831780078316DC
:101D32000317420883120313C000580884004008A6
:101D420080000130C0004008D8070130C0004008C0
:101D5200D50783160317630883120313C0005808BC
:101D62008400400880000130C0004008D507F32FEE
:101D7200E030C00052088400400880005808840007
:101D82000008C0004008D7000B305706031DD52EAF
:101D92000230530654040319D52EE5300A168A156B
:101DA200D3210A128A15F32F0C305706031DE52E94
:101DB2000230530654040319E52EE5300A168A153B
:101DC200D3210A128A15F32F0B3057060319F92E65
:101DD2000C3057060319F92E033053065404031925
:101DE200F92EE5300A168A15D3210A128A15F32F25
:101DF20013305702031C042FE3300A168A15D3212D
:101E02000A128A15F32F0830570203180F2FE630F3
:101E12000A168A15D3210A128A15F32F083057069B
:101E220003191B2F0D30570603191B2F10305706AD
:101E3200031D232F5808013E0A168A1113200A1285
:101E42008A15F32F0930570603192F2F0E30570624
:101E520003192F2F11305706031D372F5808013E43
:101E62000A168A1562270A128A15F32F0A305706B4
:101E72000319432F0F3057060319432F1230570609
:101E8200031D4B2F5808013E0A168A15C4260A1252
:101E92008A15F32F0B305706031D592F580A840059
:101EA20000080339C000400883160317C200F32F4D
:101EB200580A840000080F39C0004008831603172F
:101EC200E300F32F580884000008C0004008C9004E
:101ED20053085404031D742FE5300A168A15D321C2
:101EE2000A128A15F32F03304902031C7F2FE330B5
:101EF2000A168A15D3210A128A15F32F02304902D3
:101F020003188A2FE6300A168A15D3210A128A1577
:101F1200F32F0930530654040319962FE5300A169D
:101F22008A15D3210A128A15F32F5808013E0A1680
:101F32008A1113200A128A15831203135808033ECA
:101F42000A168A1562270A128A1583120313580881
:101F5200053E0A168A15C4260A128A15831203132D
:101F62005808073E840083170008C0004008831603
:101F72000317C200831203135808083E84000008A6
:101F8200C000400883160317E3000A168A15CE2103
:101F92000A128A15F32FE2300A168A15D3210A1281
:101FA2008A15F32F4808003A0319A62B023A03199F
:101FB200D32B063A0319312C023A03195E2C0E3A3E
:101FC2000319D02C043A0319DC2C1C3A0319EA2C0D
:101FD200023A0319B62D323A0319B92E023A0319FD
:101FE200632FCC2F83120313550884008317000834
:101FF200043EBE00003003180130BF000800831603
:102002000313A300A201231C0A282008A10021080F
:10201200A2070310A00D0310A30C2308031D04281C
:1020220022080800FA007A08840083170008F600E4
:10203200760883160317C4007A0A84000008F600A3
:102042007608C3004408F600F7017608F700F601A7
:1020520043087607F8000030031801307707F900CB
:102062007908803AFF0083307F02031D3A28E83066
:10207200780203184228790883160317E2007808C9
:10208200E100FB01FC01831603174408F600760801
:10209200F4006430F7007708F0007B080A168A150E
:1020A200E7210A168A11043E0A128A11E6270A1645
:1020B2008A11831603174308F6007608F400643089
:1020C200F7007708F0007B080A168A15E7210A163E
:1020D2008A11053E0A128A11E6270A168A11013070
:1020E200FB070318FC0A0030FC077C08803AFF005B
:1020F20080307F02031D7F2803307B020318080013
:102102004428831203132308A6002408A7002508E5
:10211200A8000310270D280DA9002908AE002E08DB
:10212200031D9A280030A0000030A1000030A20058
:1021320008002008A6002108A7002208A800031012
:10214200270D280DA9002908AF002F08031DB0286C
:102152000030A0000030A1000030A20008000030D2
:10216200AB000030AC000030AD0089302F07A60074
:102172002608AE022308A6002408A7002508A80006
:1021820010300310A80CA70CA60CFF3E031DC2289A
:102192002608A9002908AF002008A6002108A700E8
:1021A2002208A80010300310A80CA70CA60CFF3EB2
:1021B200031DD4282608A9002908AF068030A600EE
:1021C2002608AF05A417FF30A305FF30A405003091
:1021D200A505A117FF30A005FF30A1050030A2051B
:1021E2001830A6002608AA0001300310AB0DAC0D72
:1021F200AD0DFF3E031DF62822082502031D072907
:1022020021082402031D072920082302031C142984
:102212002008A3022108031C210FA4022208031C88
:10222200220AA5022B1401300310A30DA40DA50D43
:10223200FF3E031D15290130AA02031DF5282B08B4
:10224200F0002C08F1002D08F2002E08A600260846
:10225200F3002F08A7002708F4000A168A15EA25BA
:10226200700883120313A0007108A1007208A20073
:102272000800831603133E08C1003F08C20040084D
:10228200C3000310420D430DC4004408C9004908AD
:10229200031D52290030BB000030BC000030BD00DD
:1022A20008003B08C1003C08C2003D08C3000310FF
:1022B200420D430DC4004408CA004A08031D6829A0
:1022C2000030BB000030BC000030BD000800003010
:1022D200C6000030C7000030C80089304A07C1007C
:1022E2004108C9023E08C1003F08C2004008C300BD
:1022F20010300310C30CC20CC10CFF3E031D7A291F
:102302004108C4004408CA003B08C1003C08C2009E
:102312003D08C30010300310C30CC20CC10CFF3EB9
:10232200031D8C294108C4004408CA068030C1003C
:102332004108CA05BF17FF30BE05FF30BF05003098
:10234200C005BC17FF30BB05FF30BC050030BD0522
:102352001830C1004108C50001300310C60DC70D79
:10236200C80DFF3E031DAE293D084002031DBF29D3
:102372003C083F02031DBF293B083E02031CCC2937
:102382003B08BE023C08031C3C0FBF023D08031C75
:102392003D0AC002461401300310BE0DBF0DC00D30
:1023A200FF3E031DCD290130C502031DAD2946089C
:1023B200A0004708A1004808A2004908C10041083E
:1023C200A3004A08C2004208A4000A168A1556262B
:1023D200831603132008BB002108BC002208BD009D
:1023E2000800780883120313A0007908A1007A0874
:1023F200A2000310210D220DA3002308A40024082B
:10240200031D0A2A0030F8000030F9000030FA00FB
:1024120008007B08A0007C08A1007D08A200031030
:10242200210D220DA3002308A9002908031D202A3B
:102432000030F8000030F9000030FA0008002908E6
:102442007B3EA0002008A4077808A0007908A1001C
:102452007A08A20010300310A20CA10CA00CFF3EBF
:10246200031D2C2A2008A3002308A9007B08A00032
:102472007C08A1007D08A20010300310A20CA10C60
:10248200A00CFF3E031D3E2A2008A3002308A90634
:102492008030A0002008A905F917FC17FF30FB05C2
:1024A200FF30FC050030FD050030A5000030A6001D
:1024B2000030A7000730A0002008A800781C6F2A6F
:1024C2007B08A5077C08031103187C0A031DA607D5
:1024D2007D08031103187D0A031DA70701300310AD
:1024E200FA0CF90CF80CFF3E031D702A01300310A0
:1024F200FB0DFC0DFD0DFF3E031D782A0130A802E5
:10250200031D5F2A0930A0002008A800781C972A22
:102512007B08A5077C08031103187C0A031DA60784
:102522007D08031103187D0A031DA707013003105C
:10253200FA0CF90CF80CFF3E031D982A0130031027
:10254200A70CA60CA50CFF3E031DA02A0130A80271
:10255200031D872A2508F0002608F1002708F2004B
:102562002408A0002008F3002908A1002108F40093
:102572000A168A15EA257008F8007108F90072082F
:10258200FA000800831603135108D7005208D80036
:102592005308D9000310580D590DDA005A08DB0010
:1025A2005B08031DDB2A0030D1000030D20000306E
:1025B200D30008005408D7005508D8005608D9009F
:1025C2000310580D590DDA005A08E0006008031D87
:1025D200F12A0030D1000030D2000030D3000800D0
:1025E20060087B3ED7005708DB075108D700520826
:1025F200D8005308D90010300310D90CD80CD70CCE
:10260200FF3E031DFD2A5708DA005A08E00054086D
:10261200D7005508D8005608D90010300310D90C3D
:10262200D80CD70CFF3E031D0F2B5708DA005A08AF
:10263200E0068030D7005708E005D217D517FF30E3
:10264200D405FF30D5050030D6050030DC0000305F
:10265200DD000030DE000730D7005708DF00511CD4
:10266200402B5408DC07550803110318550A031DB3
:10267200DD07560803110318560A031DDE07013051
:102682000310D30CD20CD10CFF3E031D412B0130A1
:102692000310D40DD50DD60DFF3E031D492B01307D
:1026A200DF02031D302B0930D7005708DF00511C11
:1026B200682B5408DC07550803110318550A031D3B
:1026C200DD07560803110318560A031DDE07013001
:1026D2000310D30CD20CD10CFF3E031D692B013029
:1026E2000310DE0CDD0CDC0CFF3E031D712B0130F0
:1026F200DF02031D582B5C08A0005D08A1005E08E4
:10270200A2005B08D7005708A3006008D800580849
:10271200A4000A168A155626831603132008D10030
:102722002108D2002208D3000800083083160317BC
:10273200C9000030CA000030CB008030CC003F30EE
:10274200CD000A168A1539250A168A110A128A1527
:102752008F210A168A1100300A168A150F220A16CC
:102762008A1183160313E100610883160317C80058
:1027720001300A168A150F220A168A1183160313CC
:10278200E100610883160317C70002300A168A1592
:102792000F220A168A1183160313E10061088316B9
:1027A2000317C60003300A168A150F220A168A1169
:1027B20083160313E100610883160317C500043072
:1027C2000A168A150F220A168A1183160313E100CC
:1027D200610883160317C40005300A168A150F22F2
:1027E2000A168A1183160313E10061088316031780
:1027F200C300003083160313BB00C830BC00423054
:10280200BD0083160317480883160313E100E20193
:102812006108E200E10183160317470883160313D8
:102822006107A8000030031801306207A9000A16E8
:102832008A1590220A168A11831603132808BE00ED
:102842002908BF002A08C0000A168A113A210A166E
:102852008A11831603133B0883160317BF008316DE
:1028620003133C0883160317C000831603133D08A5
:1028720083160317C100003083160313BB00C83050
:10288200BC004230BD0083160317460883160313AB
:10289200E100E2016108E200E10183160317450845
:1028A200831603136107A800003003180130620782
:1028B200A9000A168A1590220A168A118316031392
:1028C2002808BE002908BF002A08C0000A168A117B
:1028D2003A210A168A11831603133B08831603173B
:1028E200BC00831603133C0883160317BD0083162E
:1028F20003133D0883160317BE004408831603130F
:10290200E100E2016108E200E101831603174308D6
:1029120083160313610783160317E10000300318BF
:10292200013083160313620783160317E200831232
:10293200031305091F3983160313E100610883128B
:102942000313E20083160317DF01E0018316031766
:10295200600883160313A100831603175F0883160A
:102962000313A0000A168A154E240A168A1183162A
:102972000313200883120313860083160317DD0155
:10298200DE01013083160317DD070318DE0A00306B
:10299200DE075E08803AFF00A7307F02031DD32CBA
:1029A20010305D02031CC22C0A168A15D0230A16A7
:1029B2008A11831603175F0883160313E100610768
:1029C200A83E8400200883178000840A2108800022
:1029D20083160317600883160313A10083160317D7
:1029E2005F0883160313A0000A168A154E240A16DE
:1029F2008A11831603132008013E831203138600F3
:102A0200831603173C0883160313CB0083160317A0
:102A12003D0883160313CC00831603173E08831662
:102A22000313CD00831603173F0883160313BB005D
:102A320083160317400883160313BC00831603177B
:102A4200410883160313BD00831603175F0883161C
:102A52000313E1006107A83E840083170008A80061
:102A6200840A0008A9000A168A1590220A168A11F9
:102A7200831603132808BE002908BF002A08C000D5
:102A82000A168A113A210A168A11831603133B0881
:102A9200CE003C08CF003D08D0000A168A154D2210
:102AA2000A168A11831603134B08E2004C08E3004E
:102AB2004D08E4000330E5006508A0008316031703
:102AC2005F080A168A1100200A168A11903E8400B5
:102AD20083160313620883178000840A6308800048
:102AE200840A64088000013083160317DF07031885
:102AF200E00A0030E0076008803AFF0080307F0281
:102B0200031D852D08305F020318FD2FA72CDF015E
:102B1200E00183160317600883160313A1008316CE
:102B220003175F0883160313A0000A168A154E24A2
:102B32000A168A11831603132008831203138600D0
:102B4200013083160317DD000030DE0001308316EA
:102B52000317DD070318DE0A0030DE075E08803A3D
:102B6200FF009B307F02031DB82D44305D02031C21
:102B7200A72D0A168A15D0230A168A118316031363
:102B8200210883160317DC0083160313200883161B
:102B92000317DB00600883160313A10083160317D3
:102BA2005F0883160313A0000A168A154E240A161C
:102BB2008A11831603132008083E8312031386002A
:102BC200013083160317DD000030DE00013083166A
:102BD2000317DD070318DE0A0030DE075E08803ABD
:102BE200FF009B307F02031DF82D44305D02031C61
:102BF200E72D0A168A15D0230A168A1183160313A3
:102C02002008831603175B0283160313E1002108D1
:102C1200031C210A831603175C0283160313E200C6
:102C2200831603175F0883160313E3006307A83EA6
:102C32008400610883178000840A6208800083167A
:102C420003173C0883160313CB00831603173D08B2
:102C520083160313CC00831603173E08831603134F
:102C6200CD00831603173F0883160313BB00831698
:102C72000317400883160313BC0083160317410889
:102C820083160313BD00831603175F08831603130D
:102C9200E1006107A83E84000008A800840A000839
:102CA200A9000A168A1590220A168A11831603139E
:102CB2002808BE002908BF002A08C0000A168A1187
:102CC2003A210A168A11831603133B08CE003C08E8
:102CD200CF003D08D0000A168A154D220A168A1125
:102CE200831603134B0883160317D80083160313A6
:102CF2004C0883160317D900831603134D08831655
:102D02000317DA00580883160313CB008316031740
:102D1200590883160313CC00831603175A08831627
:102D22000313CD000330E1006108A00083160317EE
:102D32005F080A168A1100200A168A11903E840042
:102D42008317000883160313CE00840A0008CF00FD
:102D5200840A0008D0000A168A154D220A168A1122
:102D6200831603134B08D7004C08D8004D08D9002E
:102D72000A168A15B5220A168A11831603135708F2
:102D820083160317CE0083160313580883160317FE
:102D9200CF0083160313590883160317D0004B087C
:102DA20083160313D100831603174C0883160313EB
:102DB200D200831603174D0883160313D30083161C
:102DC20003174E0883160313D400831603174F0804
:102DD20083160313D50083160317500883160313B3
:102DE200D6000A168A1536230A168A110318FF2EF0
:102DF2008316031761086204031DED2F8316031760
:102E0200580883160313D100831603175908831633
:102E12000313D200831603175A0883160313D30031
:102E220083160317620883160313A9008316031778
:102E3200610883160313A8000A168A1590220A163F
:102E42008A11831603132808CB002908CC002A080C
:102E5200CD000030CE007A30CF004430D0000A16C8
:102E62008A154D220A168A11831603134B08D400C1
:102E72004C08D5004D08D6000A168A11C3220A163C
:102E82008A1183160313510883160317D100831680
:102E92000313520883160317D20083160313530831
:102EA20083160317D300003083160313BB007A3056
:102EB200BC004430BD008316031751088316031368
:102EC200AE0083160317520883160313AF0083164E
:102ED2000317530883160313B0000330E10061089F
:102EE200A000831603175F080A168A1100200A162B
:102EF2008A11903E84008317000883160313D100C1
:102F0200840A0008D200840A0008D300831603173B
:102F1200620883160313A900831603176108831638
:102F22000313A8000A168A1590220A168A1183161C
:102F320003132808D4002908D5002A08D6000A1647
:102F42008A11C3220A168A11831603135108B1008B
:102F52005208B2005308B3000A128A1586200A16D4
:102F62008A11831603132E08BE002F08BF003008F3
:102F7200C0000A168A113A210A168A11831603130F
:102F82003B08E2003C08E3003D08E4000330E500B2
:102F92006508A000831603175F080A168A1100202D
:102FA200903E840083160313620883178000840A0C
:102FB20063088000840A64088000831603175F0890
:102FC20083160313E1006107103E84008001840A26
:102FD20080010A128A11042B5F0883160313E10091
:102FE2006107103E8400013083178007840A0318AA
:0E2FF200800A0A128A11D82A0A128A111B2B91
:10339600D93403340834E0300A168A15D3210800DC
:1033A600F1007108F000700883120317A100A20152
:1033B600A30108008316031322082104200403191D
:1033C60008008030A2060800F200F301721CEF2903
:1033D6007008F1007108F3070310F00D0310F20CEA
:1033E6007208031DE92973080800F100831203130C
:1033F600831203137108831203178D0083160317B4
:103406008C130C140C18052A831203170C08F000F1
:103416007008F2007208080083160313A1008312D5
:10342600031383120313831603132108831203174E
:103436008D00831603178C130C140C18202A831284
:1034460003170C0883160313A0002008A200220805
:103456000800FD01F91F362AF809F909F80A0319C7
:10346600F90AFD01FD0A7808F0007908F100F20179
:103476008E30FB007B08F3007D08FC007C08F4001E
:103486000A168A15EA257008F8007108F90072080C
:10349600FA000800831603134D084C044B04031965
:1034A600562A8030CD064E08AE004F08AF005008B1
:1034B600B0004B08B1004C08B2004D08B3000A1228
:1034C6008A158620831603132E08CB002F08CC00FE
:1034D6003008CD00080083160313A40083120313DB
:1034E60083120313831603132408831203178D0014
:1034F600831603132308831203178C0083160317FE
:103506008C130C158B1355308D00AA308D008C143E
:103516008C188B2A8B170C11080083160313AD0128
:10352600A91F9C2AA809A909A80A0319A90AAD0175
:10353600AD0A2808A0002908A100A2018E30AB0020
:103546002B08A3002D08AC002C08A4000A168A1527
:103556005626831603132008A8002108A90022086E
:10356600AA000800831603135708D1005808D20092
:103576005908D3000030D4000030D5000030D60002
:103586000A168A1536230A168A15031808008316A2
:1035960003135708A0005808A1005908A2000A16EC
:1035A6008A15DD21831603132008D7002108D800C9
:1035B6002208D9000800FD006430FB007B08F000FB
:1035C60079080A168A15E7210A168A159E3E0A16F2
:1035D6008A15F8210A168A15FC007D0884007C08E5
:1035E600831780006430FB007B08F00079080A1618
:1035F6008A15E7210A168A159F3E0A168A15F821AA
:10360600FC007D0A84007C08831780000800FD000A
:103616006430FB007B08F00079080A168A15E7215A
:103626000A168A159C3E0A168A15F8210A168A1564
:10363600FC007D0884007C08831780006430FB0052
:103646007B08F00079080A168A15E7210A168A15FA
:103656009D3E0A168A15F821FC007D0A84007C0826
:1036660083178000080083160313D31F472B5108C6
:10367600003CD1005208031C520F003CD2005308F4
:10368600031C530F803CD300D61F562B5408003C16
:10369600D4005508031C550F003CD5005608031CE2
:1036A600560F803CD6008030D3068030D6065608AA
:1036B6005302031D080055085202031D0800540852
:1036C60051020800383083160313A9002908A00008
:1036D60000300A128A1134250A168A154B308316D1
:1036E6000313A9002908A00001300A128A11342503
:1036F6000A168A15033083160313A9002908A000A9
:1037060002300A128A1134250A168A1507308316E2
:103716000313A9002908A00004300A128A113425CF
:103726000800F400F501F601F7017708803AF20087
:103736007108803A7202031DA22B700876020318E4
:10374600C22B76087407F2007208840083170008FB
:10375600F3007308F50776087407F2007208840010
:10376600000883120313990083160313981CB72BC2
:103776000130F6070318F70A0030F707982B75088B
:10378600003CF2007208F5007508831203139900D5
:103796008316031398180800CB2B831203130814FF
:1037A60000000000000000008312031308109301BC
:1037B600130883160313141CDC2B8312031313083C
:1037C60083160313A200A3012208A8002308A90058
:1037D600831203139301130883160313141CEF2B90
:1037E60083120313130883160313A200A3012208EE
:1037F600AA002308AB002808A300A2012A08220772
:10380600A6002B0803182B0A2307A7002708A100E8
:103816002608A0000800FD0079037A04031D232C66
:10382600831603174408FB007D0884007B08831772
:1038360080004308FB007D0A84007B0880000800A6
:103846006430FB007B08F00079080A168A15E72128
:103856000A168A15A03E0A168A15F8210A168A152E
:10386600FC007D0884007C08831780006430FB0020
:103876007B08F00079080A168A15E7210A168A15C8
:10388600A13E0A168A15F821FC007D0A84007C08F0
:103896008317800008006A2C2008063EA000210835
:1038A6000318013E003EA10008002008FE3EA000CD
:1038B60021080318013EFF3EA10008002008FC3E37
:1038C600A00021080318013EFF3EA1000800831650
:1038D60003132108003A0319712C8B2C2008003A97
:1038E60003194F2C013A03194F2C033A0319582C8C
:1038F600013A0319582C073A0319602C013A0319A7
:10390600602C033A0319612C013A0319612C8B2CA4
:10391600A001A10108008C1EA92C1A08D90059087B
:10392600DF005F08D9006008203E8400590883172D
:1039360080005F08D9005908E1070130D90059080D
:10394600E007683081000B118B168E2C0B1DD62CD0
:1039560088158B126108031DD02C831203172008CB
:10396600831203136206031DD02C0A128A157023D4
:103976000A168A15831203133E08D9005908DF0078
:103986005F08D900DA015908F0005A08F100203022
:103996000A168A1594230A168A1583120313E00160
:1039A600E10188110B118C015E08FF005D088A0099
:1039B6005C0884005B0E8300FE0E7E0E09008312F7
:1039C6000313BD008316031742080319F82C83124C
:1039D60003133808BA003A07A83E84008317000884
:1039E600BB00840A0008BC002B2D0330831203138E
:1039F600BA003A08F00038080A168A15E7210A16AE
:103A06008A15903E840083170008FB00840A00088C
:103A1600FC00840A0008FD000030F800C830F900F8
:103A26004230FA000A168A11F2210A168A15780817
:103A360083120313AA007908AB007A08AC000A12B5
:103A46008A150920831203132B08BC002A08BB0021
:103A56003C08BA003D0884003A08831780003B08FA
:103A6600BA003D0A84003A0880000800831603174E
:103A760088018901FF308316031385008601D5303E
:103A86008700880107308900FF3083120313850001
:103A96008601870188018901881188160816941203
:103AA600C03083160313940020308312031394004E
:103AB600831603139A0108309900831603178701AA
:103AC6009030831203139800263083160313980050
:103AD600C0308B008B120B178B1720308C008C1686
:103AE60081128111011481140115AA01AB01013063
:103AF60083160313AA070318AB0A0030AB072B087B
:103B0600803AFF00A7307F02031D8B2D10302A025A
:103B1600031C7A2D0A168A1565230800F601F11F83
:103B26009B2DF009F109F00A0319F10AF601F60ACC
:103B3600F31FA62DF209F309F20A0319F30A01305D
:103B4600F4007408F606F701F80170087104031909
:103B5600DD2DF501F50AF11BBC2D01300310F00D2A
:103B6600F10DFF3E031DB12D0130F4007408F50779
:103B7600AE2D01300310F70DF80DFF3E031DBD2DD0
:103B860071087302031DC92D70087202031CD22D21
:103B96007008F2027108031CF303F3027714013074
:103BA6000310F10CF00CFF3E031DD32D0130F5027E
:103BB600031DBC2D76080319E52DF709F809F70A48
:103BC6000319F80A7808F1007708F000080073086E
:103BD6000319F22D720871047004031D052E0030BE
:103BE600F0000030F1000030F20008000130F5006E
:103BF6007508F30701300310F20CF10CF00CFF3ED0
:103C0600031DFE2DFE3072050319202EF92D0130FD
:103C1600F5007508F3070130F0070030031801308E
:103C2600F107003003180130F20701300310F20CDF
:103C3600F10CF00CFF3E031D192EFF30720503191F
:103C4600332E0A2E02307302031C352E0130F30286
:103C560001300310F00DF10DF20DFF3E031D2C2E69
:103C6600F11F252E73183D2EFF30F0057F30F1052C
:103C7600FF30F2050310F30C7308F500F601F701A7
:103C860010300310F50DF60DF70DFF3E031D442E03
:103C96007508F0047608F1047708F204740803192D
:103CA6000800F21708008316031323080319602E71
:103CB600220821042004031D732E0030A0000030CA
:103CC600A1000030A20008000130A5002508A307C6
:103CD60001300310A20CA10CA00CFF3E031D6C2E9C
:103CE600FE30220503198E2E672E0130A500250809
:103CF600A3070130A007003003180130A1070030E8
:103D060003180130A20701300310A20CA10CA00C6D
:103D1600FF3E031D872EFF3022050319A12E782EA4
:103D260002302302031CA32E0130A302013003102C
:103D3600A00DA10DA20DFF3E031D9A2EA11F932ECD
:103D46002318AB2EFF30A0057F30A105FF30A2055A
:103D56000310A30C2308A500A601A7011030031029
:103D6600A50DA60DA70DFF3E031DB22E2508A00426
:103D76002608A1042708A204240803190800A2178C
:103D8600080083120313B200320884008317000868
:103D9600B000300883160317C60083120313320AD5
:103DA60084000008B000300883160317C50083128C
:103DB6000313B301B40183160317460883120313D2
:103DC600B0003008F4006430B1003108F000330868
:103DD6000A168A15E7210A168A15023E0A128A1160
:103DE600E6270A168A158316031745088312031356
:103DF600B0003008F4006430B1003108F000330838
:103E06000A168A15E7210A168A15033E0A128A112E
:103E1600E6270A168A15013083120313B30703181F
:103E2600B40A0030B4073408803AFF0080307F02BD
:103E3600031D1F2F03303302031CDE2E00308312B6
:103E46000313A000C830A1004230A2008316031756
:103E5600460883120313B000B1013008B100B00167
:103E6600831603174508831203133007F800003042
:103E7600031801303107F9000A168A152C220A1692
:103E86008A15780883120313A3007908A4007A0818
:103E9600A5000A168A1182208312031320088316AE
:103EA6000317BC0083120313210883160317BD00F2
:103EB60083120313220883160317BE000800831219
:103EC6000313B2003208840083170008B0003008DC
:103ED60083160317C80083120313320A84000008EE
:103EE600B000300883160317C70083120313B3010B
:103EF600B4013408803AFF0080307F02031D852F0D
:103F0600033033020318BF2F8316031748088312A2
:103F16000313B0003008F4006430B1003108F0003B
:103F260033080A168A15E7210A168A150A128A1113
:103F3600E6270A168A158316031747088312031302
:103F4600B0003008F4006430B1003108F0003308E6
:103F56000A168A15E7210A168A15013E0A128A11DF
:103F6600E6270A168A15013083120313B3070318CE
:103F7600B40A0030B4077C2F003083120313A0006C
:103F8600C830A1004230A2008316031748088312E6
:103F96000313B000B1013008B100B0018316031756
:103FA6004708831203133007F80000300318013066
:103FB6003107F9000A168A152C220A168A1578087E
:103FC60083120313A3007908A4007A08A5000A1631
:103FD6008A11822083120313200883160317BF0059
:103FE60083120313210883160317C00083120313D9
:0A3FF600220883160317C10008001B
:04400E00F2E0FFFFDE
:00000001FF
